{
  "_format": "hh-sol-artifact-1",
  "contractName": "CatMarketplace",
  "sourceName": "contracts/CatMarketplace.sol",
  "abi": [
    {
      "anonymous": false,
      "inputs": [
        {
          "indexed": false,
          "internalType": "address",
          "name": "oldCatAddress",
          "type": "address"
        },
        {
          "indexed": false,
          "internalType": "address",
          "name": "newCatAddress",
          "type": "address"
        }
      ],
      "name": "CatAddressUpdated",
      "type": "event"
    },
    {
      "anonymous": false,
      "inputs": [
        {
          "indexed": false,
          "internalType": "string",
          "name": "TxType",
          "type": "string"
        },
        {
          "indexed": false,
          "internalType": "address",
          "name": "owner",
          "type": "address"
        },
        {
          "indexed": false,
          "internalType": "uint256",
          "name": "tokenId",
          "type": "uint256"
        }
      ],
      "name": "MarketTransaction",
      "type": "event"
    },
    {
      "inputs": [
        {
          "internalType": "uint256",
          "name": "_tokenId",
          "type": "uint256"
        }
      ],
      "name": "buyCat",
      "outputs": [],
      "stateMutability": "payable",
      "type": "function"
    },
    {
      "inputs": [],
      "name": "getAllTokenOnSale",
      "outputs": [
        {
          "internalType": "uint256[]",
          "name": "listOfOffers",
          "type": "uint256[]"
        }
      ],
      "stateMutability": "view",
      "type": "function"
    },
    {
      "inputs": [
        {
          "internalType": "uint256",
          "name": "_tokenId",
          "type": "uint256"
        }
      ],
      "name": "getOffer",
      "outputs": [
        {
          "internalType": "address",
          "name": "seller",
          "type": "address"
        },
        {
          "internalType": "uint256",
          "name": "price",
          "type": "uint256"
        },
        {
          "internalType": "uint256",
          "name": "index",
          "type": "uint256"
        },
        {
          "internalType": "uint256",
          "name": "tokenId",
          "type": "uint256"
        },
        {
          "internalType": "uint64",
          "name": "time",
          "type": "uint64"
        }
      ],
      "stateMutability": "view",
      "type": "function"
    },
    {
      "inputs": [
        {
          "internalType": "uint256",
          "name": "_tokenId",
          "type": "uint256"
        }
      ],
      "name": "isOffer",
      "outputs": [
        {
          "internalType": "bool",
          "name": "",
          "type": "bool"
        }
      ],
      "stateMutability": "view",
      "type": "function"
    },
    {
      "inputs": [
        {
          "internalType": "uint256",
          "name": "_tokenId",
          "type": "uint256"
        }
      ],
      "name": "removeOffer",
      "outputs": [],
      "stateMutability": "nonpayable",
      "type": "function"
    },
    {
      "inputs": [
        {
          "internalType": "address",
          "name": "_catContract",
          "type": "address"
        }
      ],
      "name": "setCatContract",
      "outputs": [],
      "stateMutability": "nonpayable",
      "type": "function"
    },
    {
      "inputs": [
        {
          "internalType": "uint256",
          "name": "_price",
          "type": "uint256"
        },
        {
          "internalType": "uint256",
          "name": "_tokenId",
          "type": "uint256"
        }
      ],
      "name": "setOffer",
      "outputs": [],
      "stateMutability": "nonpayable",
      "type": "function"
    }
  ],
  "bytecode": "0x608060405234801561001057600080fd5b50611513806100206000396000f3fe6080604052600436106100705760003560e01c8063941b055b1161004e578063941b055b1461010a57806395a0f9c714610133578063b8f27b911461015c578063d72503ba1461019957610070565b80634579268a1461007557806349b3709f146100b657806371a0712d146100e1575b600080fd5b34801561008157600080fd5b5061009c60048036038101906100979190610c83565b6101b5565b6040516100ad959493929190610d23565b60405180910390f35b3480156100c257600080fd5b506100cb6102b1565b6040516100d89190610e34565b60405180910390f35b3480156100ed57600080fd5b5061010860048036038101906101039190610e82565b610309565b005b34801561011657600080fd5b50610131600480360381019061012c9190610eaf565b6103ac565b005b34801561013f57600080fd5b5061015a60048036038101906101559190610c83565b6106a2565b005b34801561016857600080fd5b50610183600480360381019061017e9190610c83565b6108e9565b6040516101909190610f0a565b60405180910390f35b6101b360048036038101906101ae9190610c83565b610958565b005b600080600080600080600260008881526020019081526020016000206040518060a00160405290816000820154815260200160018201548152602001600282015481526020016003820160009054906101000a900473ffffffffffffffffffffffffffffffffffffffff1673ffffffffffffffffffffffffffffffffffffffff1673ffffffffffffffffffffffffffffffffffffffff1681526020016003820160149054906101000a900467ffffffffffffffff1667ffffffffffffffff1667ffffffffffffffff1681525050905080606001518160400151826020015183600001518460800151955095509550955095505091939590929450565b606060018054806020026020016040519081016040528092919081815260200182805480156102ff57602002820191906000526020600020905b8154815260200190600101908083116102eb575b5050505050905090565b60008060009054906101000a900473ffffffffffffffffffffffffffffffffffffffff169050816000806101000a81548173ffffffffffffffffffffffffffffffffffffffff021916908373ffffffffffffffffffffffffffffffffffffffff1602179055507f8bc1cd5b76ca68c71b12726ee0646546f03aa8ed8628a89ca4f04644d726867881836040516103a0929190610f25565b60405180910390a15050565b60008054906101000a900473ffffffffffffffffffffffffffffffffffffffff1673ffffffffffffffffffffffffffffffffffffffff16636352211e826040518263ffffffff1660e01b81526004016104059190610f4e565b602060405180830381865afa158015610422573d6000803e3d6000fd5b505050506040513d601f19601f820116820180604052508101906104469190610f7e565b73ffffffffffffffffffffffffffffffffffffffff163373ffffffffffffffffffffffffffffffffffffffff16146104b3576040517f08c379a00000000000000000000000000000000000000000000000000000000081526004016104aa90611008565b60405180910390fd5b60008054906101000a900473ffffffffffffffffffffffffffffffffffffffff1673ffffffffffffffffffffffffffffffffffffffff1663095ea7b330836040518363ffffffff1660e01b815260040161050e929190611028565b600060405180830381600087803b15801561052857600080fd5b505af115801561053c573d6000803e3d6000fd5b5050505060006040518060a0016040528083815260200160018054905081526020018481526020013373ffffffffffffffffffffffffffffffffffffffff1681526020014267ffffffffffffffff1681525090506001829080600181540180825580915050600190039060005260206000200160009091909190915055806002600084815260200190815260200160002060008201518160000155602082015181600101556040820151816002015560608201518160030160006101000a81548173ffffffffffffffffffffffffffffffffffffffff021916908373ffffffffffffffffffffffffffffffffffffffff16021790555060808201518160030160146101000a81548167ffffffffffffffff021916908367ffffffffffffffff1602179055509050507fd99e4fad9ad6313b1feb588fa8e605e3a9873172f2024330c35dd2b4041a4386338360405161069592919061109d565b60405180910390a1505050565b3073ffffffffffffffffffffffffffffffffffffffff1663b8f27b91826040518263ffffffff1660e01b81526004016106db9190610f4e565b602060405180830381865afa1580156106f8573d6000803e3d6000fd5b505050506040513d601f19601f8201168201806040525081019061071c9190611105565b61075b576040517f08c379a00000000000000000000000000000000000000000000000000000000081526004016107529061117e565b60405180910390fd5b60006002600083815260200190815260200160002060010154905060006001808054905061078991906111cd565b905060026000848152602001908152602001600020600080820160009055600182016000905560028201600090556003820160006101000a81549073ffffffffffffffffffffffffffffffffffffffff02191690556003820160146101000a81549067ffffffffffffffff02191690555050808214610883576001818154811061081657610815611201565b5b90600052602060002001546001838154811061083557610834611201565b5b906000526020600020018190555060006001838154811061085957610858611201565b5b90600052602060002001549050826002600083815260200190815260200160002060010181905550505b600180548061089557610894611230565b5b600190038181906000526020600020016000905590557fd99e4fad9ad6313b1feb588fa8e605e3a9873172f2024330c35dd2b4041a438633846040516108dc9291906112ab565b60405180910390a1505050565b60008073ffffffffffffffffffffffffffffffffffffffff166002600084815260200190815260200160002060030160009054906101000a900473ffffffffffffffffffffffffffffffffffffffff1673ffffffffffffffffffffffffffffffffffffffff1614159050919050565b6000600260008381526020019081526020016000206040518060a00160405290816000820154815260200160018201548152602001600282015481526020016003820160009054906101000a900473ffffffffffffffffffffffffffffffffffffffff1673ffffffffffffffffffffffffffffffffffffffff1673ffffffffffffffffffffffffffffffffffffffff1681526020016003820160149054906101000a900467ffffffffffffffff1667ffffffffffffffff1667ffffffffffffffff168152505090508060400151341015610a67576040517f08c379a0000000000000000000000000000000000000000000000000000000008152600401610a5e90611333565b60405180910390fd5b3073ffffffffffffffffffffffffffffffffffffffff1663b8f27b91836040518263ffffffff1660e01b8152600401610aa09190610f4e565b602060405180830381865afa158015610abd573d6000803e3d6000fd5b505050506040513d601f19601f82011682018060405250810190610ae19190611105565b610b20576040517f08c379a0000000000000000000000000000000000000000000000000000000008152600401610b179061139f565b60405180910390fd5b610b29826106a2565b806060015173ffffffffffffffffffffffffffffffffffffffff166108fc82604001519081150290604051600060405180830381858888f19350505050158015610b77573d6000803e3d6000fd5b5060008054906101000a900473ffffffffffffffffffffffffffffffffffffffff1673ffffffffffffffffffffffffffffffffffffffff166323b872dd826060015133856040518463ffffffff1660e01b8152600401610bd99392919061141e565b600060405180830381600087803b158015610bf357600080fd5b505af1158015610c07573d6000803e3d6000fd5b505050507fd99e4fad9ad6313b1feb588fa8e605e3a9873172f2024330c35dd2b4041a43863383604051610c3c9291906114a1565b60405180910390a15050565b600080fd5b6000819050919050565b610c6081610c4d565b8114610c6b57600080fd5b50565b600081359050610c7d81610c57565b92915050565b600060208284031215610c9957610c98610c48565b5b6000610ca784828501610c6e565b91505092915050565b600073ffffffffffffffffffffffffffffffffffffffff82169050919050565b6000610cdb82610cb0565b9050919050565b610ceb81610cd0565b82525050565b610cfa81610c4d565b82525050565b600067ffffffffffffffff82169050919050565b610d1d81610d00565b82525050565b600060a082019050610d386000830188610ce2565b610d456020830187610cf1565b610d526040830186610cf1565b610d5f6060830185610cf1565b610d6c6080830184610d14565b9695505050505050565b600081519050919050565b600082825260208201905092915050565b6000819050602082019050919050565b610dab81610c4d565b82525050565b6000610dbd8383610da2565b60208301905092915050565b6000602082019050919050565b6000610de182610d76565b610deb8185610d81565b9350610df683610d92565b8060005b83811015610e27578151610e0e8882610db1565b9750610e1983610dc9565b925050600181019050610dfa565b5085935050505092915050565b60006020820190508181036000830152610e4e8184610dd6565b905092915050565b610e5f81610cd0565b8114610e6a57600080fd5b50565b600081359050610e7c81610e56565b92915050565b600060208284031215610e9857610e97610c48565b5b6000610ea684828501610e6d565b91505092915050565b60008060408385031215610ec657610ec5610c48565b5b6000610ed485828601610c6e565b9250506020610ee585828601610c6e565b9150509250929050565b60008115159050919050565b610f0481610eef565b82525050565b6000602082019050610f1f6000830184610efb565b92915050565b6000604082019050610f3a6000830185610ce2565b610f476020830184610ce2565b9392505050565b6000602082019050610f636000830184610cf1565b92915050565b600081519050610f7881610e56565b92915050565b600060208284031215610f9457610f93610c48565b5b6000610fa284828501610f69565b91505092915050565b600082825260208201905092915050565b7f6e6f74206f776e6572202c63616e742073656c6c000000000000000000000000600082015250565b6000610ff2601483610fab565b9150610ffd82610fbc565b602082019050919050565b6000602082019050818103600083015261102181610fe5565b9050919050565b600060408201905061103d6000830185610ce2565b61104a6020830184610cf1565b9392505050565b7f6e6577206f666665720000000000000000000000000000000000000000000000600082015250565b6000611087600983610fab565b915061109282611051565b602082019050919050565b600060608201905081810360008301526110b68161107a565b90506110c56020830185610ce2565b6110d26040830184610cf1565b9392505050565b6110e281610eef565b81146110ed57600080fd5b50565b6000815190506110ff816110d9565b92915050565b60006020828403121561111b5761111a610c48565b5b6000611129848285016110f0565b91505092915050565b7f6e6f7420696e2073656c6c000000000000000000000000000000000000000000600082015250565b6000611168600b83610fab565b915061117382611132565b602082019050919050565b600060208201905081810360008301526111978161115b565b9050919050565b7f4e487b7100000000000000000000000000000000000000000000000000000000600052601160045260246000fd5b60006111d882610c4d565b91506111e383610c4d565b92508282039050818111156111fb576111fa61119e565b5b92915050565b7f4e487b7100000000000000000000000000000000000000000000000000000000600052603260045260246000fd5b7f4e487b7100000000000000000000000000000000000000000000000000000000600052603160045260246000fd5b7f43616e63656c206f666665720000000000000000000000000000000000000000600082015250565b6000611295600c83610fab565b91506112a08261125f565b602082019050919050565b600060608201905081810360008301526112c481611288565b90506112d36020830185610ce2565b6112e06040830184610cf1565b9392505050565b7f6e6f20656e6f677468206d6f6e65790000000000000000000000000000000000600082015250565b600061131d600f83610fab565b9150611328826112e7565b602082019050919050565b6000602082019050818103600083015261134c81611310565b9050919050565b7f6e6f20696e2073656c6c2c63616e277420627579000000000000000000000000600082015250565b6000611389601483610fab565b915061139482611353565b602082019050919050565b600060208201905081810360008301526113b88161137c565b9050919050565b6000819050919050565b60006113e46113df6113da84610cb0565b6113bf565b610cb0565b9050919050565b60006113f6826113c9565b9050919050565b6000611408826113eb565b9050919050565b611418816113fd565b82525050565b6000606082019050611433600083018661140f565b6114406020830185610ce2565b61144d6040830184610cf1565b949350505050565b7f4275790000000000000000000000000000000000000000000000000000000000600082015250565b600061148b600383610fab565b915061149682611455565b602082019050919050565b600060608201905081810360008301526114ba8161147e565b90506114c96020830185610ce2565b6114d66040830184610cf1565b939250505056fea2646970667358221220e7f01de84e6a842cfafe61b8c22570f65269a6f5da2a62482866cf60da50f85764736f6c63430008140033",
  "linkReferences": {},
  "deployedLinkReferences": {}
}