{
  "_format": "hh-sol-artifact-1",
  "contractName": "CatContract",
  "sourceName": "contracts/CatContract.sol",
  "abi": [
    {
      "inputs": [
        {
          "internalType": "uint256",
          "name": "_max_suplly",
          "type": "uint256"
        }
      ],
      "stateMutability": "nonpayable",
      "type": "constructor"
    },
    {
      "inputs": [],
      "name": "ERC721EnumerableForbiddenBatchMint",
      "type": "error"
    },
    {
      "inputs": [
        {
          "internalType": "address",
          "name": "sender",
          "type": "address"
        },
        {
          "internalType": "uint256",
          "name": "tokenId",
          "type": "uint256"
        },
        {
          "internalType": "address",
          "name": "owner",
          "type": "address"
        }
      ],
      "name": "ERC721IncorrectOwner",
      "type": "error"
    },
    {
      "inputs": [
        {
          "internalType": "address",
          "name": "operator",
          "type": "address"
        },
        {
          "internalType": "uint256",
          "name": "tokenId",
          "type": "uint256"
        }
      ],
      "name": "ERC721InsufficientApproval",
      "type": "error"
    },
    {
      "inputs": [
        {
          "internalType": "address",
          "name": "approver",
          "type": "address"
        }
      ],
      "name": "ERC721InvalidApprover",
      "type": "error"
    },
    {
      "inputs": [
        {
          "internalType": "address",
          "name": "operator",
          "type": "address"
        }
      ],
      "name": "ERC721InvalidOperator",
      "type": "error"
    },
    {
      "inputs": [
        {
          "internalType": "address",
          "name": "owner",
          "type": "address"
        }
      ],
      "name": "ERC721InvalidOwner",
      "type": "error"
    },
    {
      "inputs": [
        {
          "internalType": "address",
          "name": "receiver",
          "type": "address"
        }
      ],
      "name": "ERC721InvalidReceiver",
      "type": "error"
    },
    {
      "inputs": [
        {
          "internalType": "address",
          "name": "sender",
          "type": "address"
        }
      ],
      "name": "ERC721InvalidSender",
      "type": "error"
    },
    {
      "inputs": [
        {
          "internalType": "uint256",
          "name": "tokenId",
          "type": "uint256"
        }
      ],
      "name": "ERC721NonexistentToken",
      "type": "error"
    },
    {
      "inputs": [
        {
          "internalType": "address",
          "name": "owner",
          "type": "address"
        },
        {
          "internalType": "uint256",
          "name": "index",
          "type": "uint256"
        }
      ],
      "name": "ERC721OutOfBoundsIndex",
      "type": "error"
    },
    {
      "anonymous": false,
      "inputs": [
        {
          "indexed": true,
          "internalType": "address",
          "name": "owner",
          "type": "address"
        },
        {
          "indexed": true,
          "internalType": "address",
          "name": "approved",
          "type": "address"
        },
        {
          "indexed": true,
          "internalType": "uint256",
          "name": "tokenId",
          "type": "uint256"
        }
      ],
      "name": "Approval",
      "type": "event"
    },
    {
      "anonymous": false,
      "inputs": [
        {
          "indexed": true,
          "internalType": "address",
          "name": "owner",
          "type": "address"
        },
        {
          "indexed": true,
          "internalType": "address",
          "name": "operator",
          "type": "address"
        },
        {
          "indexed": false,
          "internalType": "bool",
          "name": "approved",
          "type": "bool"
        }
      ],
      "name": "ApprovalForAll",
      "type": "event"
    },
    {
      "anonymous": false,
      "inputs": [
        {
          "indexed": false,
          "internalType": "address",
          "name": "owner",
          "type": "address"
        },
        {
          "indexed": false,
          "internalType": "uint256",
          "name": "indexId",
          "type": "uint256"
        },
        {
          "indexed": false,
          "internalType": "uint256",
          "name": "dadId",
          "type": "uint256"
        },
        {
          "indexed": false,
          "internalType": "uint256",
          "name": "mumId",
          "type": "uint256"
        },
        {
          "indexed": false,
          "internalType": "uint256",
          "name": "genes",
          "type": "uint256"
        }
      ],
      "name": "Birth",
      "type": "event"
    },
    {
      "anonymous": false,
      "inputs": [
        {
          "indexed": true,
          "internalType": "address",
          "name": "from",
          "type": "address"
        },
        {
          "indexed": true,
          "internalType": "address",
          "name": "to",
          "type": "address"
        },
        {
          "indexed": true,
          "internalType": "uint256",
          "name": "tokenId",
          "type": "uint256"
        }
      ],
      "name": "Transfer",
      "type": "event"
    },
    {
      "inputs": [
        {
          "internalType": "uint256",
          "name": "_dadId",
          "type": "uint256"
        },
        {
          "internalType": "uint256",
          "name": "_mumId",
          "type": "uint256"
        }
      ],
      "name": "Breed",
      "outputs": [],
      "stateMutability": "nonpayable",
      "type": "function"
    },
    {
      "inputs": [
        {
          "internalType": "uint256",
          "name": "_generation",
          "type": "uint256"
        },
        {
          "internalType": "uint256",
          "name": "_tokenId",
          "type": "uint256"
        },
        {
          "internalType": "uint256",
          "name": "_dadId",
          "type": "uint256"
        },
        {
          "internalType": "uint256",
          "name": "_mumId",
          "type": "uint256"
        },
        {
          "internalType": "uint256",
          "name": "_dna",
          "type": "uint256"
        },
        {
          "internalType": "address",
          "name": "_owner",
          "type": "address"
        }
      ],
      "name": "_crateCat",
      "outputs": [],
      "stateMutability": "nonpayable",
      "type": "function"
    },
    {
      "inputs": [
        {
          "internalType": "address",
          "name": "to",
          "type": "address"
        },
        {
          "internalType": "uint256",
          "name": "tokenId",
          "type": "uint256"
        }
      ],
      "name": "approve",
      "outputs": [],
      "stateMutability": "nonpayable",
      "type": "function"
    },
    {
      "inputs": [
        {
          "internalType": "address",
          "name": "owner",
          "type": "address"
        }
      ],
      "name": "balanceOf",
      "outputs": [
        {
          "internalType": "uint256",
          "name": "",
          "type": "uint256"
        }
      ],
      "stateMutability": "view",
      "type": "function"
    },
    {
      "inputs": [
        {
          "internalType": "uint256",
          "name": "_dna",
          "type": "uint256"
        }
      ],
      "name": "createCat",
      "outputs": [],
      "stateMutability": "nonpayable",
      "type": "function"
    },
    {
      "inputs": [
        {
          "internalType": "uint256",
          "name": "tokenId",
          "type": "uint256"
        }
      ],
      "name": "getApproved",
      "outputs": [
        {
          "internalType": "address",
          "name": "",
          "type": "address"
        }
      ],
      "stateMutability": "view",
      "type": "function"
    },
    {
      "inputs": [
        {
          "internalType": "uint256",
          "name": "_id",
          "type": "uint256"
        }
      ],
      "name": "getCat",
      "outputs": [
        {
          "components": [
            {
              "internalType": "uint256",
              "name": "generation",
              "type": "uint256"
            },
            {
              "internalType": "uint256",
              "name": "indexId",
              "type": "uint256"
            },
            {
              "internalType": "uint256",
              "name": "dadId",
              "type": "uint256"
            },
            {
              "internalType": "uint256",
              "name": "mumId",
              "type": "uint256"
            },
            {
              "internalType": "uint64",
              "name": "birthTime",
              "type": "uint64"
            },
            {
              "internalType": "uint256",
              "name": "genes",
              "type": "uint256"
            }
          ],
          "internalType": "struct CatContract.Cat",
          "name": "",
          "type": "tuple"
        }
      ],
      "stateMutability": "view",
      "type": "function"
    },
    {
      "inputs": [],
      "name": "getCatByOwn",
      "outputs": [
        {
          "internalType": "uint256[]",
          "name": "",
          "type": "uint256[]"
        }
      ],
      "stateMutability": "view",
      "type": "function"
    },
    {
      "inputs": [
        {
          "internalType": "uint256",
          "name": "a",
          "type": "uint256"
        },
        {
          "internalType": "uint256",
          "name": "b",
          "type": "uint256"
        }
      ],
      "name": "getNeneration",
      "outputs": [
        {
          "internalType": "uint256",
          "name": "",
          "type": "uint256"
        }
      ],
      "stateMutability": "pure",
      "type": "function"
    },
    {
      "inputs": [
        {
          "internalType": "address",
          "name": "owner",
          "type": "address"
        },
        {
          "internalType": "address",
          "name": "operator",
          "type": "address"
        }
      ],
      "name": "isApprovedForAll",
      "outputs": [
        {
          "internalType": "bool",
          "name": "",
          "type": "bool"
        }
      ],
      "stateMutability": "view",
      "type": "function"
    },
    {
      "inputs": [
        {
          "internalType": "uint256",
          "name": "_dadDna",
          "type": "uint256"
        },
        {
          "internalType": "uint256",
          "name": "_mumDna",
          "type": "uint256"
        }
      ],
      "name": "mixDna",
      "outputs": [
        {
          "internalType": "uint256",
          "name": "",
          "type": "uint256"
        }
      ],
      "stateMutability": "view",
      "type": "function"
    },
    {
      "inputs": [],
      "name": "name",
      "outputs": [
        {
          "internalType": "string",
          "name": "",
          "type": "string"
        }
      ],
      "stateMutability": "view",
      "type": "function"
    },
    {
      "inputs": [
        {
          "internalType": "uint256",
          "name": "tokenId",
          "type": "uint256"
        }
      ],
      "name": "ownerOf",
      "outputs": [
        {
          "internalType": "address",
          "name": "",
          "type": "address"
        }
      ],
      "stateMutability": "view",
      "type": "function"
    },
    {
      "inputs": [],
      "name": "randomCattribute",
      "outputs": [
        {
          "internalType": "uint256",
          "name": "",
          "type": "uint256"
        }
      ],
      "stateMutability": "view",
      "type": "function"
    },
    {
      "inputs": [],
      "name": "randomPercent",
      "outputs": [
        {
          "internalType": "uint256",
          "name": "",
          "type": "uint256"
        }
      ],
      "stateMutability": "view",
      "type": "function"
    },
    {
      "inputs": [
        {
          "internalType": "uint256",
          "name": "start",
          "type": "uint256"
        },
        {
          "internalType": "uint256",
          "name": "end",
          "type": "uint256"
        }
      ],
      "name": "randomXtoY",
      "outputs": [
        {
          "internalType": "uint256",
          "name": "",
          "type": "uint256"
        }
      ],
      "stateMutability": "view",
      "type": "function"
    },
    {
      "inputs": [
        {
          "internalType": "address",
          "name": "from",
          "type": "address"
        },
        {
          "internalType": "address",
          "name": "to",
          "type": "address"
        },
        {
          "internalType": "uint256",
          "name": "tokenId",
          "type": "uint256"
        }
      ],
      "name": "safeTransferFrom",
      "outputs": [],
      "stateMutability": "nonpayable",
      "type": "function"
    },
    {
      "inputs": [
        {
          "internalType": "address",
          "name": "from",
          "type": "address"
        },
        {
          "internalType": "address",
          "name": "to",
          "type": "address"
        },
        {
          "internalType": "uint256",
          "name": "tokenId",
          "type": "uint256"
        },
        {
          "internalType": "bytes",
          "name": "data",
          "type": "bytes"
        }
      ],
      "name": "safeTransferFrom",
      "outputs": [],
      "stateMutability": "nonpayable",
      "type": "function"
    },
    {
      "inputs": [
        {
          "internalType": "address",
          "name": "operator",
          "type": "address"
        },
        {
          "internalType": "bool",
          "name": "approved",
          "type": "bool"
        }
      ],
      "name": "setApprovalForAll",
      "outputs": [],
      "stateMutability": "nonpayable",
      "type": "function"
    },
    {
      "inputs": [
        {
          "internalType": "bytes4",
          "name": "interfaceId",
          "type": "bytes4"
        }
      ],
      "name": "supportsInterface",
      "outputs": [
        {
          "internalType": "bool",
          "name": "",
          "type": "bool"
        }
      ],
      "stateMutability": "view",
      "type": "function"
    },
    {
      "inputs": [],
      "name": "symbol",
      "outputs": [
        {
          "internalType": "string",
          "name": "",
          "type": "string"
        }
      ],
      "stateMutability": "view",
      "type": "function"
    },
    {
      "inputs": [
        {
          "internalType": "uint256",
          "name": "index",
          "type": "uint256"
        }
      ],
      "name": "tokenByIndex",
      "outputs": [
        {
          "internalType": "uint256",
          "name": "",
          "type": "uint256"
        }
      ],
      "stateMutability": "view",
      "type": "function"
    },
    {
      "inputs": [
        {
          "internalType": "address",
          "name": "owner",
          "type": "address"
        },
        {
          "internalType": "uint256",
          "name": "index",
          "type": "uint256"
        }
      ],
      "name": "tokenOfOwnerByIndex",
      "outputs": [
        {
          "internalType": "uint256",
          "name": "",
          "type": "uint256"
        }
      ],
      "stateMutability": "view",
      "type": "function"
    },
    {
      "inputs": [
        {
          "internalType": "uint256",
          "name": "tokenId",
          "type": "uint256"
        }
      ],
      "name": "tokenURI",
      "outputs": [
        {
          "internalType": "string",
          "name": "",
          "type": "string"
        }
      ],
      "stateMutability": "view",
      "type": "function"
    },
    {
      "inputs": [],
      "name": "totalSupply",
      "outputs": [
        {
          "internalType": "uint256",
          "name": "",
          "type": "uint256"
        }
      ],
      "stateMutability": "view",
      "type": "function"
    },
    {
      "inputs": [
        {
          "internalType": "address",
          "name": "from",
          "type": "address"
        },
        {
          "internalType": "address",
          "name": "to",
          "type": "address"
        },
        {
          "internalType": "uint256",
          "name": "tokenId",
          "type": "uint256"
        }
      ],
      "name": "transferFrom",
      "outputs": [],
      "stateMutability": "nonpayable",
      "type": "function"
    }
  ],
  "bytecode": "0x60806040526000600b553480156200001657600080fd5b50604051620039523803806200395283398181016040528101906200003c91906200011c565b6040518060400160405280600981526020017f63727970746f43617400000000000000000000000000000000000000000000008152506040518060400160405280600381526020017f43435400000000000000000000000000000000000000000000000000000000008152508160009081620000b99190620003be565b508060019081620000cb9190620003be565b50505080600a8190555050620004a5565b600080fd5b6000819050919050565b620000f681620000e1565b81146200010257600080fd5b50565b6000815190506200011681620000eb565b92915050565b600060208284031215620001355762000134620000dc565b5b6000620001458482850162000105565b91505092915050565b600081519050919050565b7f4e487b7100000000000000000000000000000000000000000000000000000000600052604160045260246000fd5b7f4e487b7100000000000000000000000000000000000000000000000000000000600052602260045260246000fd5b60006002820490506001821680620001d057607f821691505b602082108103620001e657620001e562000188565b5b50919050565b60008190508160005260206000209050919050565b60006020601f8301049050919050565b600082821b905092915050565b600060088302620002507fffffffffffffffffffffffffffffffffffffffffffffffffffffffffffffffff8262000211565b6200025c868362000211565b95508019841693508086168417925050509392505050565b6000819050919050565b60006200029f620002996200029384620000e1565b62000274565b620000e1565b9050919050565b6000819050919050565b620002bb836200027e565b620002d3620002ca82620002a6565b8484546200021e565b825550505050565b600090565b620002ea620002db565b620002f7818484620002b0565b505050565b5b818110156200031f5762000313600082620002e0565b600181019050620002fd565b5050565b601f8211156200036e576200033881620001ec565b620003438462000201565b8101602085101562000353578190505b6200036b620003628562000201565b830182620002fc565b50505b505050565b600082821c905092915050565b6000620003936000198460080262000373565b1980831691505092915050565b6000620003ae838362000380565b9150826002028217905092915050565b620003c9826200014e565b67ffffffffffffffff811115620003e557620003e462000159565b5b620003f18254620001b7565b620003fe82828562000323565b600060209050601f83116001811462000436576000841562000421578287015190505b6200042d8582620003a0565b8655506200049d565b601f1984166200044686620001ec565b60005b82811015620004705784890151825560018201915060208501945060208101905062000449565b868310156200049057848901516200048c601f89168262000380565b8355505b6001600288020188555050505b505050505050565b61349d80620004b56000396000f3fe608060405234801561001057600080fd5b506004361061018e5760003560e01c80636352211e116100de578063a1a9e6ed11610097578063c3133e1311610071578063c3133e13146104a7578063c87b56dd146104d7578063e8590a2014610507578063e985e9c5146105375761018e565b8063a1a9e6ed14610451578063a22cb4651461046f578063b88d4fde1461048b5761018e565b80636352211e1461037b5780636df05a03146103ab57806370a08231146103c9578063783b360a146103f95780638e10eff31461041757806395d89b41146104335761018e565b8063282e86b51161014b57806342842e0e1161012557806342842e0e146102e35780634da2b48e146102ff5780634f6ccce71461032f5780635130f5f51461035f5761018e565b8063282e86b51461026757806328ebfcaa146102835780632f745c59146102b35761018e565b806301ffc9a71461019357806306fdde03146101c3578063081812fc146101e1578063095ea7b31461021157806318160ddd1461022d57806323b872dd1461024b575b600080fd5b6101ad60048036038101906101a89190612624565b610567565b6040516101ba919061266c565b60405180910390f35b6101cb6105e1565b6040516101d89190612717565b60405180910390f35b6101fb60048036038101906101f6919061276f565b610673565b60405161020891906127dd565b60405180910390f35b61022b60048036038101906102269190612824565b61068f565b005b6102356106a5565b6040516102429190612873565b60405180910390f35b6102656004803603810190610260919061288e565b6106b2565b005b610281600480360381019061027c91906128e1565b6107b4565b005b61029d6004803603810190610298919061296e565b6108d0565b6040516102aa9190612873565b60405180910390f35b6102cd60048036038101906102c89190612824565b610917565b6040516102da9190612873565b60405180910390f35b6102fd60048036038101906102f8919061288e565b6109c0565b005b6103196004803603810190610314919061276f565b6109e0565b6040516103269190612a5b565b60405180910390f35b6103496004803603810190610344919061276f565b610a86565b6040516103569190612873565b60405180910390f35b6103796004803603810190610374919061296e565b610afc565b005b6103956004803603810190610390919061276f565b610cd6565b6040516103a291906127dd565b60405180910390f35b6103b3610ce8565b6040516103c09190612873565b60405180910390f35b6103e360048036038101906103de9190612a76565b610d28565b6040516103f09190612873565b60405180910390f35b610401610de2565b60405161040e9190612b52565b60405180910390f35b610431600480360381019061042c919061276f565b610ecd565b005b61043b610f02565b6040516104489190612717565b60405180910390f35b610459610f94565b6040516104669190612873565b60405180910390f35b61048960048036038101906104849190612ba0565b610fda565b005b6104a560048036038101906104a09190612d15565b610ff0565b005b6104c160048036038101906104bc919061296e565b611015565b6040516104ce9190612873565b60405180910390f35b6104f160048036038101906104ec919061276f565b611218565b6040516104fe9190612717565b60405180910390f35b610521600480360381019061051c919061296e565b611281565b60405161052e9190612873565b60405180910390f35b610551600480360381019061054c9190612d98565b6112b5565b60405161055e919061266c565b60405180910390f35b60007f780e9d63000000000000000000000000000000000000000000000000000000007bffffffffffffffffffffffffffffffffffffffffffffffffffffffff1916827bffffffffffffffffffffffffffffffffffffffffffffffffffffffff191614806105da57506105d982611349565b5b9050919050565b6060600080546105f090612e07565b80601f016020809104026020016040519081016040528092919081815260200182805461061c90612e07565b80156106695780601f1061063e57610100808354040283529160200191610669565b820191906000526020600020905b81548152906001019060200180831161064c57829003601f168201915b5050505050905090565b600061067e8261142b565b50610688826114b3565b9050919050565b6106a1828261069c6114f0565b6114f8565b5050565b6000600880549050905090565b600073ffffffffffffffffffffffffffffffffffffffff168273ffffffffffffffffffffffffffffffffffffffff16036107245760006040517f64a0ae9200000000000000000000000000000000000000000000000000000000815260040161071b91906127dd565b60405180910390fd5b600061073883836107336114f0565b61150a565b90508373ffffffffffffffffffffffffffffffffffffffff168173ffffffffffffffffffffffffffffffffffffffff16146107ae578382826040517f64283d7b0000000000000000000000000000000000000000000000000000000081526004016107a593929190612e38565b60405180910390fd5b50505050565b60006040518060c001604052808881526020018781526020018681526020018581526020014267ffffffffffffffff168152602001848152509050600c8190806001815401808255809150506001900390600052602060002090600602016000909190919091506000820151816000015560208201518160010155604082015181600201556060820151816003015560808201518160040160006101000a81548167ffffffffffffffff021916908367ffffffffffffffff16021790555060a0820151816005015550506108888287611627565b7f0a5311bd2a6608f08a180df2ee7c5946819a649b204b554bb8e39825b2c50ad582878787876040516108bf959493929190612e6f565b60405180910390a150505050505050565b6000806108db610f94565b9050600184846108eb9190612ef1565b6108f59190612f25565b816109009190612f88565b9050838161090e9190612f25565b91505092915050565b600061092283610d28565b82106109675782826040517fa57d13dc00000000000000000000000000000000000000000000000000000000815260040161095e929190612fb9565b60405180910390fd5b600660008473ffffffffffffffffffffffffffffffffffffffff1673ffffffffffffffffffffffffffffffffffffffff168152602001908152602001600020600083815260200190815260200160002054905092915050565b6109db83838360405180602001604052806000815250610ff0565b505050565b6109e8612555565b6000600c83815481106109fe576109fd612fe2565b5b90600052602060002090600602016040518060c0016040529081600082015481526020016001820154815260200160028201548152602001600382015481526020016004820160009054906101000a900467ffffffffffffffff1667ffffffffffffffff1667ffffffffffffffff168152602001600582015481525050905080915050919050565b6000610a906106a5565b8210610ad6576000826040517fa57d13dc000000000000000000000000000000000000000000000000000000008152600401610acd929190612fb9565b60405180910390fd5b60088281548110610aea57610ae9612fe2565b5b90600052602060002001549050919050565b610b0582610cd6565b73ffffffffffffffffffffffffffffffffffffffff163373ffffffffffffffffffffffffffffffffffffffff1614610b72576040517f08c379a0000000000000000000000000000000000000000000000000000000008152600401610b699061305d565b60405180910390fd5b610b7b81610cd6565b73ffffffffffffffffffffffffffffffffffffffff163373ffffffffffffffffffffffffffffffffffffffff1614610be8576040517f08c379a0000000000000000000000000000000000000000000000000000000008152600401610bdf906130c9565b60405180910390fd5b6000600c8381548110610bfe57610bfd612fe2565b5b90600052602060002090600602016005015490506000600c8381548110610c2857610c27612fe2565b5b90600052602060002090600602016005015490506000610c488383611015565b90506000610ca0600c8781548110610c6357610c62612fe2565b5b906000526020600020906006020160000154600c8781548110610c8957610c88612fe2565b5b906000526020600020906006020160000154611281565b90506000600b549050610cb8828260008087336107b4565b6001600b54610cc79190612f25565b600b8190555050505050505050565b6000610ce18261142b565b9050919050565b600080610cf7600160066108d0565b90506000610d07600160056108d0565b905080600a83610d1791906130e9565b610d219190612f25565b9250505090565b60008073ffffffffffffffffffffffffffffffffffffffff168273ffffffffffffffffffffffffffffffffffffffff1603610d9b5760006040517f89c62b64000000000000000000000000000000000000000000000000000000008152600401610d9291906127dd565b60405180910390fd5b600360008373ffffffffffffffffffffffffffffffffffffffff1673ffffffffffffffffffffffffffffffffffffffff168152602001908152602001600020549050919050565b60606000610def33610d28565b905060008167ffffffffffffffff811115610e0d57610e0c612bea565b5b604051908082528060200260200182016040528015610e3b5781602001602082028036833780820191505090505b5090506000805b600b54811015610ec3573373ffffffffffffffffffffffffffffffffffffffff16610e6c82610cd6565b73ffffffffffffffffffffffffffffffffffffffff1603610eb65780838381518110610e9b57610e9a612fe2565b5b6020026020010181815250508180610eb29061312b565b9250505b8080600101915050610e42565b5081935050505090565b6000600b549050610ee460008260008086336107b4565b6001600b6000828254610ef79190612f25565b925050819055505050565b606060018054610f1190612e07565b80601f0160208091040260200160405190810160405280929190818152602001828054610f3d90612e07565b8015610f8a5780601f10610f5f57610100808354040283529160200191610f8a565b820191906000526020600020905b815481529060010190602001808311610f6d57829003601f168201915b5050505050905090565b600080606242335a604051602001610fae939291906131dc565b6040516020818303038152906040528051906020012060001c610fd19190612f88565b90508091505090565b610fec610fe56114f0565b8383611645565b5050565b610ffb8484846106b2565b61100f6110066114f0565b858585856117b4565b50505050565b60008060ff426110259190612f88565b90506000600790506000611037612595565b6000600192505b60808361ffff16116111a0576000611054610f94565b905060558110156110d9576000848760ff161661ffff16146110a45760648861107d9190612f88565b60ff16838660ff166008811061109657611095612fe2565b5b6020020181815250506110d4565b6064896110b19190612f88565b60ff16838660ff16600881106110ca576110c9612fe2565b5b6020020181815250505b611152565b60058560ff1614806110ee575060078560ff16145b15611122576110fb610ce8565b60ff16838660ff166008811061111457611113612fe2565b5b602002018181525050611151565b61112e600a60626108d0565b60ff16838660ff166008811061114757611146612fe2565b5b6020020181815250505b5b60648861115f9190613219565b975060648961116e9190613219565b985060808461ffff161461118b57848061118790613257565b9550505b50600283611199919061328e565b925061103e565b600092505b60088361ffff16101561120a57818361ffff16600881106111c9576111c8612fe2565b5b6020020151816111d99190612f25565b905060078361ffff16146111f7576064816111f491906130e9565b90505b8280611202906132cb565b9350506111a5565b809550505050505092915050565b60606112238261142b565b50600061122e611965565b9050600081511161124e5760405180602001604052806000815250611279565b806112588461197c565b604051602001611269929190613331565b6040516020818303038152906040525b915050919050565b60008183111561129f576001836112989190612f25565b90506112af565b6001826112ac9190612f25565b90505b92915050565b6000600560008473ffffffffffffffffffffffffffffffffffffffff1673ffffffffffffffffffffffffffffffffffffffff16815260200190815260200160002060008373ffffffffffffffffffffffffffffffffffffffff1673ffffffffffffffffffffffffffffffffffffffff16815260200190815260200160002060009054906101000a900460ff16905092915050565b60007f80ac58cd000000000000000000000000000000000000000000000000000000007bffffffffffffffffffffffffffffffffffffffffffffffffffffffff1916827bffffffffffffffffffffffffffffffffffffffffffffffffffffffff1916148061141457507f5b5e139f000000000000000000000000000000000000000000000000000000007bffffffffffffffffffffffffffffffffffffffffffffffffffffffff1916827bffffffffffffffffffffffffffffffffffffffffffffffffffffffff1916145b80611424575061142382611a4a565b5b9050919050565b60008061143783611ab4565b9050600073ffffffffffffffffffffffffffffffffffffffff168173ffffffffffffffffffffffffffffffffffffffff16036114aa57826040517f7e2732890000000000000000000000000000000000000000000000000000000081526004016114a19190612873565b60405180910390fd5b80915050919050565b60006004600083815260200190815260200160002060009054906101000a900473ffffffffffffffffffffffffffffffffffffffff169050919050565b600033905090565b6115058383836001611af1565b505050565b600080611518858585611cb6565b9050600073ffffffffffffffffffffffffffffffffffffffff168173ffffffffffffffffffffffffffffffffffffffff160361155c5761155784611ed0565b61159b565b8473ffffffffffffffffffffffffffffffffffffffff168173ffffffffffffffffffffffffffffffffffffffff161461159a576115998185611f19565b5b5b600073ffffffffffffffffffffffffffffffffffffffff168573ffffffffffffffffffffffffffffffffffffffff16036115dd576115d884612004565b61161c565b8473ffffffffffffffffffffffffffffffffffffffff168173ffffffffffffffffffffffffffffffffffffffff161461161b5761161a85856120d5565b5b5b809150509392505050565b611641828260405180602001604052806000815250612160565b5050565b600073ffffffffffffffffffffffffffffffffffffffff168273ffffffffffffffffffffffffffffffffffffffff16036116b657816040517f5b08ba180000000000000000000000000000000000000000000000000000000081526004016116ad91906127dd565b60405180910390fd5b80600560008573ffffffffffffffffffffffffffffffffffffffff1673ffffffffffffffffffffffffffffffffffffffff16815260200190815260200160002060008473ffffffffffffffffffffffffffffffffffffffff1673ffffffffffffffffffffffffffffffffffffffff16815260200190815260200160002060006101000a81548160ff0219169083151502179055508173ffffffffffffffffffffffffffffffffffffffff168373ffffffffffffffffffffffffffffffffffffffff167f17307eab39ab6107e8899845ad3d59bd9653f200f220920489ca2b5937696c31836040516117a7919061266c565b60405180910390a3505050565b60008373ffffffffffffffffffffffffffffffffffffffff163b111561195e578273ffffffffffffffffffffffffffffffffffffffff1663150b7a02868685856040518563ffffffff1660e01b815260040161181394939291906133aa565b6020604051808303816000875af192505050801561184f57506040513d601f19601f8201168201806040525081019061184c919061340b565b60015b6118d3573d806000811461187f576040519150601f19603f3d011682016040523d82523d6000602084013e611884565b606091505b5060008151036118cb57836040517f64a0ae920000000000000000000000000000000000000000000000000000000081526004016118c291906127dd565b60405180910390fd5b805181602001fd5b63150b7a0260e01b7bffffffffffffffffffffffffffffffffffffffffffffffffffffffff1916817bffffffffffffffffffffffffffffffffffffffffffffffffffffffff19161461195c57836040517f64a0ae9200000000000000000000000000000000000000000000000000000000815260040161195391906127dd565b60405180910390fd5b505b5050505050565b606060405180602001604052806000815250905090565b60606000600161198b84612184565b01905060008167ffffffffffffffff8111156119aa576119a9612bea565b5b6040519080825280601f01601f1916602001820160405280156119dc5781602001600182028036833780820191505090505b509050600082602001820190505b600115611a3f578080600190039150507f3031323334353637383961626364656600000000000000000000000000000000600a86061a8153600a8581611a3357611a32612f59565b5b049450600085036119ea575b819350505050919050565b60007f01ffc9a7000000000000000000000000000000000000000000000000000000007bffffffffffffffffffffffffffffffffffffffffffffffffffffffff1916827bffffffffffffffffffffffffffffffffffffffffffffffffffffffff1916149050919050565b60006002600083815260200190815260200160002060009054906101000a900473ffffffffffffffffffffffffffffffffffffffff169050919050565b8080611b2a5750600073ffffffffffffffffffffffffffffffffffffffff168273ffffffffffffffffffffffffffffffffffffffff1614155b15611c5e576000611b3a8461142b565b9050600073ffffffffffffffffffffffffffffffffffffffff168373ffffffffffffffffffffffffffffffffffffffff1614158015611ba557508273ffffffffffffffffffffffffffffffffffffffff168173ffffffffffffffffffffffffffffffffffffffff1614155b8015611bb85750611bb681846112b5565b155b15611bfa57826040517fa9fbf51f000000000000000000000000000000000000000000000000000000008152600401611bf191906127dd565b60405180910390fd5b8115611c5c57838573ffffffffffffffffffffffffffffffffffffffff168273ffffffffffffffffffffffffffffffffffffffff167f8c5be1e5ebec7d5bd14f71427d1e84f3dd0314c0f7b2291e5b200ac8c7c3b92560405160405180910390a45b505b836004600085815260200190815260200160002060006101000a81548173ffffffffffffffffffffffffffffffffffffffff021916908373ffffffffffffffffffffffffffffffffffffffff16021790555050505050565b600080611cc284611ab4565b9050600073ffffffffffffffffffffffffffffffffffffffff168373ffffffffffffffffffffffffffffffffffffffff1614611d0457611d038184866122d7565b5b600073ffffffffffffffffffffffffffffffffffffffff168173ffffffffffffffffffffffffffffffffffffffff1614611d9557611d46600085600080611af1565b6001600360008373ffffffffffffffffffffffffffffffffffffffff1673ffffffffffffffffffffffffffffffffffffffff168152602001908152602001600020600082825403925050819055505b600073ffffffffffffffffffffffffffffffffffffffff168573ffffffffffffffffffffffffffffffffffffffff1614611e18576001600360008773ffffffffffffffffffffffffffffffffffffffff1673ffffffffffffffffffffffffffffffffffffffff168152602001908152602001600020600082825401925050819055505b846002600086815260200190815260200160002060006101000a81548173ffffffffffffffffffffffffffffffffffffffff021916908373ffffffffffffffffffffffffffffffffffffffff160217905550838573ffffffffffffffffffffffffffffffffffffffff168273ffffffffffffffffffffffffffffffffffffffff167fddf252ad1be2c89b69c2b068fc378daa952ba7f163c4a11628f55a4df523b3ef60405160405180910390a4809150509392505050565b6008805490506009600083815260200190815260200160002081905550600881908060018154018082558091505060019003906000526020600020016000909190919091505550565b6000611f2483610d28565b90506000600760008481526020019081526020016000205490506000600660008673ffffffffffffffffffffffffffffffffffffffff1673ffffffffffffffffffffffffffffffffffffffff1681526020019081526020016000209050828214611fd05760008160008581526020019081526020016000205490508082600085815260200190815260200160002081905550826007600083815260200190815260200160002081905550505b6007600085815260200190815260200160002060009055806000848152602001908152602001600020600090555050505050565b600060016008805490506120189190612ef1565b905060006009600084815260200190815260200160002054905060006008838154811061204857612047612fe2565b5b90600052602060002001549050806008838154811061206a57612069612fe2565b5b9060005260206000200181905550816009600083815260200190815260200160002081905550600960008581526020019081526020016000206000905560088054806120b9576120b8613438565b5b6001900381819060005260206000200160009055905550505050565b600060016120e284610d28565b6120ec9190612ef1565b905081600660008573ffffffffffffffffffffffffffffffffffffffff1673ffffffffffffffffffffffffffffffffffffffff168152602001908152602001600020600083815260200190815260200160002081905550806007600084815260200190815260200160002081905550505050565b61216a838361239b565b61217f6121756114f0565b60008585856117b4565b505050565b600080600090507a184f03e93ff9f4daa797ed6e38ed64bf6a1f01000000000000000083106121e2577a184f03e93ff9f4daa797ed6e38ed64bf6a1f01000000000000000083816121d8576121d7612f59565b5b0492506040810190505b6d04ee2d6d415b85acef8100000000831061221f576d04ee2d6d415b85acef8100000000838161221557612214612f59565b5b0492506020810190505b662386f26fc10000831061224e57662386f26fc10000838161224457612243612f59565b5b0492506010810190505b6305f5e1008310612277576305f5e100838161226d5761226c612f59565b5b0492506008810190505b612710831061229c57612710838161229257612291612f59565b5b0492506004810190505b606483106122bf57606483816122b5576122b4612f59565b5b0492506002810190505b600a83106122ce576001810190505b80915050919050565b6122e2838383612494565b61239657600073ffffffffffffffffffffffffffffffffffffffff168373ffffffffffffffffffffffffffffffffffffffff160361235757806040517f7e27328900000000000000000000000000000000000000000000000000000000815260040161234e9190612873565b60405180910390fd5b81816040517f177e802f00000000000000000000000000000000000000000000000000000000815260040161238d929190612fb9565b60405180910390fd5b505050565b600073ffffffffffffffffffffffffffffffffffffffff168273ffffffffffffffffffffffffffffffffffffffff160361240d5760006040517f64a0ae9200000000000000000000000000000000000000000000000000000000815260040161240491906127dd565b60405180910390fd5b600061241b8383600061150a565b9050600073ffffffffffffffffffffffffffffffffffffffff168173ffffffffffffffffffffffffffffffffffffffff161461248f5760006040517f73c6ac6e00000000000000000000000000000000000000000000000000000000815260040161248691906127dd565b60405180910390fd5b505050565b60008073ffffffffffffffffffffffffffffffffffffffff168373ffffffffffffffffffffffffffffffffffffffff161415801561254c57508273ffffffffffffffffffffffffffffffffffffffff168473ffffffffffffffffffffffffffffffffffffffff16148061250d575061250c84846112b5565b5b8061254b57508273ffffffffffffffffffffffffffffffffffffffff16612533836114b3565b73ffffffffffffffffffffffffffffffffffffffff16145b5b90509392505050565b6040518060c0016040528060008152602001600081526020016000815260200160008152602001600067ffffffffffffffff168152602001600081525090565b604051806101000160405280600890602082028036833780820191505090505090565b6000604051905090565b600080fd5b600080fd5b60007fffffffff0000000000000000000000000000000000000000000000000000000082169050919050565b612601816125cc565b811461260c57600080fd5b50565b60008135905061261e816125f8565b92915050565b60006020828403121561263a576126396125c2565b5b60006126488482850161260f565b91505092915050565b60008115159050919050565b61266681612651565b82525050565b6000602082019050612681600083018461265d565b92915050565b600081519050919050565b600082825260208201905092915050565b60005b838110156126c15780820151818401526020810190506126a6565b60008484015250505050565b6000601f19601f8301169050919050565b60006126e982612687565b6126f38185612692565b93506127038185602086016126a3565b61270c816126cd565b840191505092915050565b6000602082019050818103600083015261273181846126de565b905092915050565b6000819050919050565b61274c81612739565b811461275757600080fd5b50565b60008135905061276981612743565b92915050565b600060208284031215612785576127846125c2565b5b60006127938482850161275a565b91505092915050565b600073ffffffffffffffffffffffffffffffffffffffff82169050919050565b60006127c78261279c565b9050919050565b6127d7816127bc565b82525050565b60006020820190506127f260008301846127ce565b92915050565b612801816127bc565b811461280c57600080fd5b50565b60008135905061281e816127f8565b92915050565b6000806040838503121561283b5761283a6125c2565b5b60006128498582860161280f565b925050602061285a8582860161275a565b9150509250929050565b61286d81612739565b82525050565b60006020820190506128886000830184612864565b92915050565b6000806000606084860312156128a7576128a66125c2565b5b60006128b58682870161280f565b93505060206128c68682870161280f565b92505060406128d78682870161275a565b9150509250925092565b60008060008060008060c087890312156128fe576128fd6125c2565b5b600061290c89828a0161275a565b965050602061291d89828a0161275a565b955050604061292e89828a0161275a565b945050606061293f89828a0161275a565b935050608061295089828a0161275a565b92505060a061296189828a0161280f565b9150509295509295509295565b60008060408385031215612985576129846125c2565b5b60006129938582860161275a565b92505060206129a48582860161275a565b9150509250929050565b6129b781612739565b82525050565b600067ffffffffffffffff82169050919050565b6129da816129bd565b82525050565b60c0820160008201516129f660008501826129ae565b506020820151612a0960208501826129ae565b506040820151612a1c60408501826129ae565b506060820151612a2f60608501826129ae565b506080820151612a4260808501826129d1565b5060a0820151612a5560a08501826129ae565b50505050565b600060c082019050612a7060008301846129e0565b92915050565b600060208284031215612a8c57612a8b6125c2565b5b6000612a9a8482850161280f565b91505092915050565b600081519050919050565b600082825260208201905092915050565b6000819050602082019050919050565b6000612adb83836129ae565b60208301905092915050565b6000602082019050919050565b6000612aff82612aa3565b612b098185612aae565b9350612b1483612abf565b8060005b83811015612b45578151612b2c8882612acf565b9750612b3783612ae7565b925050600181019050612b18565b5085935050505092915050565b60006020820190508181036000830152612b6c8184612af4565b905092915050565b612b7d81612651565b8114612b8857600080fd5b50565b600081359050612b9a81612b74565b92915050565b60008060408385031215612bb757612bb66125c2565b5b6000612bc58582860161280f565b9250506020612bd685828601612b8b565b9150509250929050565b600080fd5b600080fd5b7f4e487b7100000000000000000000000000000000000000000000000000000000600052604160045260246000fd5b612c22826126cd565b810181811067ffffffffffffffff82111715612c4157612c40612bea565b5b80604052505050565b6000612c546125b8565b9050612c608282612c19565b919050565b600067ffffffffffffffff821115612c8057612c7f612bea565b5b612c89826126cd565b9050602081019050919050565b82818337600083830152505050565b6000612cb8612cb384612c65565b612c4a565b905082815260208101848484011115612cd457612cd3612be5565b5b612cdf848285612c96565b509392505050565b600082601f830112612cfc57612cfb612be0565b5b8135612d0c848260208601612ca5565b91505092915050565b60008060008060808587031215612d2f57612d2e6125c2565b5b6000612d3d8782880161280f565b9450506020612d4e8782880161280f565b9350506040612d5f8782880161275a565b925050606085013567ffffffffffffffff811115612d8057612d7f6125c7565b5b612d8c87828801612ce7565b91505092959194509250565b60008060408385031215612daf57612dae6125c2565b5b6000612dbd8582860161280f565b9250506020612dce8582860161280f565b9150509250929050565b7f4e487b7100000000000000000000000000000000000000000000000000000000600052602260045260246000fd5b60006002820490506001821680612e1f57607f821691505b602082108103612e3257612e31612dd8565b5b50919050565b6000606082019050612e4d60008301866127ce565b612e5a6020830185612864565b612e6760408301846127ce565b949350505050565b600060a082019050612e8460008301886127ce565b612e916020830187612864565b612e9e6040830186612864565b612eab6060830185612864565b612eb86080830184612864565b9695505050505050565b7f4e487b7100000000000000000000000000000000000000000000000000000000600052601160045260246000fd5b6000612efc82612739565b9150612f0783612739565b9250828203905081811115612f1f57612f1e612ec2565b5b92915050565b6000612f3082612739565b9150612f3b83612739565b9250828201905080821115612f5357612f52612ec2565b5b92915050565b7f4e487b7100000000000000000000000000000000000000000000000000000000600052601260045260246000fd5b6000612f9382612739565b9150612f9e83612739565b925082612fae57612fad612f59565b5b828206905092915050565b6000604082019050612fce60008301856127ce565b612fdb6020830184612864565b9392505050565b7f4e487b7100000000000000000000000000000000000000000000000000000000600052603260045260246000fd5b7f6e6f206461640000000000000000000000000000000000000000000000000000600082015250565b6000613047600683612692565b915061305282613011565b602082019050919050565b600060208201905081810360008301526130768161303a565b9050919050565b7f6e6f206d756d0000000000000000000000000000000000000000000000000000600082015250565b60006130b3600683612692565b91506130be8261307d565b602082019050919050565b600060208201905081810360008301526130e2816130a6565b9050919050565b60006130f482612739565b91506130ff83612739565b925082820261310d81612739565b9150828204841483151761312457613123612ec2565b5b5092915050565b600061313682612739565b91507fffffffffffffffffffffffffffffffffffffffffffffffffffffffffffffffff820361316857613167612ec2565b5b600182019050919050565b6000819050919050565b61318e61318982612739565b613173565b82525050565b60008160601b9050919050565b60006131ac82613194565b9050919050565b60006131be826131a1565b9050919050565b6131d66131d1826127bc565b6131b3565b82525050565b60006131e8828661317d565b6020820191506131f882856131c5565b601482019150613208828461317d565b602082019150819050949350505050565b600061322482612739565b915061322f83612739565b92508261323f5761323e612f59565b5b828204905092915050565b600060ff82169050919050565b60006132628261324a565b91506000820361327557613274612ec2565b5b600182039050919050565b600061ffff82169050919050565b600061329982613280565b91506132a483613280565b92508282026132b281613280565b91508082146132c4576132c3612ec2565b5b5092915050565b60006132d682613280565b915061ffff82036132ea576132e9612ec2565b5b600182019050919050565b600081905092915050565b600061330b82612687565b61331581856132f5565b93506133258185602086016126a3565b80840191505092915050565b600061333d8285613300565b91506133498284613300565b91508190509392505050565b600081519050919050565b600082825260208201905092915050565b600061337c82613355565b6133868185613360565b93506133968185602086016126a3565b61339f816126cd565b840191505092915050565b60006080820190506133bf60008301876127ce565b6133cc60208301866127ce565b6133d96040830185612864565b81810360608301526133eb8184613371565b905095945050505050565b600081519050613405816125f8565b92915050565b600060208284031215613421576134206125c2565b5b600061342f848285016133f6565b91505092915050565b7f4e487b7100000000000000000000000000000000000000000000000000000000600052603160045260246000fdfea26469706673582212207b7cd43962ec7ba8d4938971c6edcf5cb7ee7577c102a2beb02bcdae9d74bccc64736f6c63430008140033",
  "linkReferences": {},
  "deployedLinkReferences": {}
}